:020000040800F2
:10000000B0080020BD400008392800083B2800083F
:100010003D2800083F280008412800080000000093
:10002000000000000000000000000000432800085D
:10003000452800080000000047280008492800085B
:10004000D7400008D7400008D740000851290008D1
:10005000D7400008D740000829290008D7400008E9
:10006000D7400008D7400008D7400008D740000814
:10007000D7400008D7400008D7400008D740000804
:10008000D7400008D7400008D7400008D7400008F4
:10009000D7400008D7400008D7400008D7400008E4
:1000A000D7400008D7400008D7400008D7400008D4
:1000B000D7400008D7400008D7400008D7400008C4
:1000C000D7400008D7400008D7400008D7400008B4
:1000D000D7400008D7400008D7400008D7400008A4
:1000E000D7400008D7400008D7400008D740000894
:1000F000D740000800F002F800F068F80AA090E885
:10010000000C82448344AAF10107DA4501D100F0D2
:100110005DF8AFF2090EBAE80F0013F0010F18BF37
:10012000FB1A43F0010318470C6300003C63000016
:100130000A444FF0000C10F8013B13F0070408BF0D
:1001400010F8014B1D1108BF10F8015B641E05D0AB
:1001500010F8016B641E01F8016BF9D113F0080F60
:100160001EBF10F8014BAD1C0C1B09D16D1E58BFF2
:1001700001F801CBFAD505E014F8016B01F8016B29
:100180006D1EF9D59142D6D370470000103A24BFB6
:1001900078C878C1FAD8520724BF30C830C144BFEC
:1001A00004680C607047000000230024002500262E
:1001B000103A28BF78C1FBD8520728BF30C148BFCA
:1001C0000B6070471FB51FBD10B510BD05F0BBFB20
:1001D0001146FFF7F7FF02F020FD05F0D9FB03B44D
:1001E000FFF7F2FF03BC05F0DDFB000010B50121B5
:1001F000084601F0AEF90021BDE81040012001F0F1
:10020000A8B95C4900200860091D0860091D086044
:10021000091D0860091D0860091D0860091D0860A6
:1002200070475549086070475348006800F44070B3
:10023000704751490028486802D040F0010001E0B1
:1002400020F001004860704710B58A0721F00304D0
:100250004949130F21440F228C689A4094438C60C3
:100260008A68984002438A6010BD424A116821F4AE
:1002700040310143116070473E4B10B51A6802438C
:10028000440302D522F00F020A43040303D522F0EF
:10029000F00242EA0112C40203D522F4706242EA7B
:1002A0000122800203D522F4704040EA01321A6034
:1002B00010BD304A121F0029116801D0014300E02F
:1002C0008143116070472B4A121F0029116801D029
:1002D000814300E001431160704710B5C40F20F066
:1002E00000422448001D031D31B114B101681143BF
:1002F00005E01868104306E01CB1016891430160F5
:1003000010BD18689043186010BD1A49091D0028D7
:10031000086802D040F0004001E020F00040086092
:100320007047144B0C33012811D0022814D01B1D28
:1003300003280CD004280FD01B1D052807D0062841
:100340000AD0181D002A026811D08A4310E01868EC
:1003500042B188431860704718682AB1C94300EA5F
:100360000140F7E70843F5E740EA0140F2E70A43B6
:1003700002607047047C00400000014027490843A8
:1003800027490860704770B50F21C47802780123AF
:100390004FF0E026E4B1224C246804F4E064C4F594
:1003A000E064C4F30724C4F10405E1404478AC40A0
:1003B00085780D4025431B4C29011155007800F02C
:1003C0001F018B40400906EB8000C0F8003170BD72
:1003D00002F01F008340500906EB8000C0F8803116
:1003E00070BD114A114001430D48001F0160704764
:1003F0000B4A121D0029116801D0014300E081431E
:10040000116070474FF0E0210428086903D020F004
:1004100004000861704740F00400FAE70000FA05A4
:100420000CED00E000E400E080FFFF1FEB4910B599
:1004300088420AD144150121204601F08AF820465D
:10044000BDE81040002101F084B810BD30B542680D
:10045000E34B0C791A400B6842EA042213434360D1
:100460008268E04B4D791A40D1E9034323438C68FD
:1004700044EA4504234313438360026B097D22F061
:10048000F872491EC9B242EA0151016330BD002130
:100490000160017141714FF04072C0E902120161C7
:1004A000012101757047D0490A68006822F4403282
:1004B000104308607047002101607047002981687F
:1004C00002D041F0010101E021F00101816070479B
:1004D0000029816802D041F0040101E021F004010B
:1004E00081607047002A426801D00A4300E08A43D5
:1004F00042607047826822F0F0020A4382607047CF
:100500004268BA4B1A400A43426070478162C26235
:100510007047426822F01F020A4342607047B249A6
:100520000028086802D040F4000001E020F4000038
:100530000860704770B507241D290AD9C56DA1F15F
:100540001E0606EB4606B440A543B3401D43C565F1
:1005500021E013290AD9C568A1F1140606EB460665
:10056000B440A543B3401D43C56014E009290AD92E
:100570000569A1F10A0606EB4606B440A543B3405F
:100580001D43056107E0456901EB4106B440A54301
:10059000B3401D4345611F23072A09D2046C521E34
:1005A00002EB820293409C4391400C43046470BD73
:1005B0000D2A09D2C46BD21F02EB820293409C43E6
:1005C00091400C43C46370BD132A09D2846B0D3A69
:1005D00002EB820293409C4391400C43846370BDC4
:1005E000192A09D2446B133A02EB820293409C43CE
:1005F00091400C43446370BD046B193A02EB8202D4
:1006000093409C4391400C43046370BD816841F06A
:10061000804181607047014600208968490000D50B
:10062000012070470029816802D041F4806101E017
:1006300021F48061816070470029816802D041F017
:10064000020101E021F00201816070474268491E09
:1006500022F4604242EA413141607047002941681A
:1006600002D041F4006101E021F400614160704773
:10067000806D80B270470029816802D041F480719A
:1006800001E021F48071816070470029816802D007
:1006900041F4007101E021F400718160704770B590
:1006A00007241D290AD9C56DA1F11E0606EB4606D1
:1006B000B440A543B3401D43C56521E013290AD9C1
:1006C000C568A1F1140606EB4606B440A543B34045
:1006D0001D43C56014E009290AD90569A1F10A067C
:1006E00006EB4606B440A543B3401D43056107E051
:1006F000456901EB4106B440A543B3401D43456144
:10070000436CC3F30154121B921C02EB82041F22A0
:10071000A2409343A1400B43436470BD426C491E09
:1007200022F4401242EA015141647047425070473E
:10073000826822F470220A4382607047826822F441
:1007400040120A4382607047816841F480018160F1
:100750007047014600208968490200D50120704792
:100760000029416802D041F4806101E021F48061F8
:10077000416070470029416802D041F4805101E096
:1007800021F48051416070470844006B80B270478B
:1007900001238B4041680AB1194300E0994341604D
:1007A00070470246002012680A4200D001207047BC
:1007B000C9430160704730B50246002054680B0AF7
:1007C00001258D4011682C40194202D0002C00D028
:1007D000012030BD6FEA1121016070470024014003
:1007E000FFFEFFFCFDF7FFC004270140FFFD3FFFB8
:1007F000384900200860091D0860091D0860091DAE
:10080000086034496FF07F4014310860704730B59C
:1008100030498379026853B30B6893430B600A1D18
:1008200013680468A343136002790A4413680468D8
:1008300023431360274A083213680468A3431360F4
:10084000131D1C680568AC431C604479102C05D04E
:1008500021440A68006802430A6030BD11680468D8
:1008600021431160196800680143196030BD0079A7
:10087000084401689143016030BD002101600171AD
:100880000C22427181717047124910310A6802438B
:100890000A60704701460F4A0020143212680A426B
:1008A00000D0012070470B49143108607047094A95
:1008B000014600201268074B0A4014331B680B42A4
:1008C00002D0002A00D0012070470249143108608C
:1008D0007047000000040140FE4A116821F0010148
:1008E000014311607047FB490028086802D040F0BE
:1008F000020001E020F0020008607047F54900287E
:10090000086802D040F0040001E020F00400086014
:100910007047F0490028086802D040F0080001E064
:1009200020F0080008607047EA48001D0068C00712
:1009300005D0E848E8490C300160E849016070479B
:10094000E44800B5001D0068800707D5FFF7ECFFFD
:10095000E048E34910300160E249016000BDDD4834
:10096000001D016841F0020101607047D94904206F
:1009700018310A68D20701D0012070470A68D205F1
:1009800001D502207047096811F4F05FFAD0032006
:10099000704700B50346FFF7E9FF02E0FFF7E6FF07
:1009A0005B1E012803D0002B00D1052000BD002BC9
:1009B000F4D1FAE770B505464FF400463046FFF72C
:1009C000E8FF042816D1C34C241D206840F40070B1
:1009D0002060206840F00800206000202860304639
:1009E000FFF7D7FF216821F008012160216821F479
:1009F0000071216070BD70B505464FF400460C468D
:100A00003046FFF7C6FF042804D12C603046BDE80D
:100A10007040BEE770BDAF48001D016841F00101A4
:100A200001607047AB49091D0028086802D040F4F6
:100A3000807001E020F480700860704710B50446B3
:100A40004FF40040FFF7A5FF042801D100212170D9
:100A500010BD10B504464FF40040FFF79AFF04287C
:100A600001D10021218010BD10B504464FF4004093
:100A7000FFF78FFF042801D10021216010BD70B560
:100A800005464FF400460C463046FFF782FF042827
:100A90000AD19048001D016821F4807101602C602A
:100AA0003046BDE8704074E770BD70B506464FF43F
:100AB00000450C462846FFF76CFF04281BD18548EB
:100AC000001D016821F48071016024B13470284652
:100AD000BDE870405DE726F003052C68B007C10E45
:100AE000FF20884084432846FFF7BEFF2146284662
:100AF000BDE87040C3E770BDF0B504464FF4004751
:100B00000E463846FFF745FF0546042828D17148B0
:100B1000001D016821F48071016026B126803846ED
:100B2000FFF737FF12E0E043800711D024F00306FF
:100B30003568A007C10E4FF6FF70884085433046E8
:100B4000FFF792FF29463046FFF799FF054607E079
:100B500000212046FFF7A9FF0021601CFFF7A5FF39
:100B60002846F0BD70B505464FF400460C463046A9
:100B7000FFF70FFF042815D124B12C703046BDE8D3
:100B8000704006E725F003063468A807C10EFF2071
:100B9000884084433046FFF767FF21463046BDE872
:100BA00070406CE770BDF0B504464FF400470E4648
:100BB0003846FFF7EEFE0546042822D126B12680EE
:100BC0003846FFF7E6FE12E0E043800711D024F03C
:100BD00003052E68A007C10E4FF6FF7088408643BC
:100BE0002846FFF741FF31462846FFF748FF0546F4
:100BF00007E000212046FFF758FF0021601CFFF7A7
:100C000054FF2846F0BD70B505464FF400460C462B
:100C10003046FFF7BEFE042804D12C603046BDE804
:100C20007040B6E670BD2B4800B5001D0068400757
:100C300007D5FFF779FE27482B49143001602B496F
:100C4000016000BD2348001D016841F004010160FE
:100C500070472048001D016841F480210160704701
:100C600070B504464FF400460D463046FFF791FE3E
:100C700004281BD11E4A906835B12043D16880B248
:100C800041EA144189B205E0E1438BB21840D368D0
:100C900003EA1141C34340EA03409060C84341EA7C
:100CA0000040D0603046BDE8704072E670BD70B55F
:100CB00004464FF400460D463046FFF76AFE04280E
:100CC0002CD10B4A1069BDB12043516980B241EA71
:100CD00014410FE0003C0240EFCDAB890504030254
:100CE000BFAE9D8C16151413C8D9EAFB2726252400
:100CF0000000F81F89B205E0E1438BB21840536948
:100D000003EA1141C34340EA03401061C84341EA8A
:100D1000004050613046BDE870403AE670BD70B5A5
:100D200004464FF400460D463046FFF732FE0428D5
:100D30001BD1554A906935B12043D16980B241EA4F
:100D4000144189B205E0E1438BB21840D36903EA4C
:100D50001141C34340EA03409061C84341EA004067
:100D6000D0613046BDE8704013E670BD30B5044632
:100D70004FF400452846FFF70CFEE143C9B244EAB0
:100D80000141042801D1404801602846BDE83040B7
:100D9000FFE530B53D4B1B680843C3F303431043E5
:100DA00040EA0304E04344EA00444FF40045284687
:100DB000FFF7EFFD042801D1334844602846BDE821
:100DC0003040E6E530B5314909684FF4004501F49B
:100DD000700140EA1140C14340EA01442846FFF750
:100DE000D8FD042801D1284844602846BDE8304099
:100DF000CFE530B5254909684FF40045C1F30641F8
:100E00000843C14340EA01442846FFF7C2FD0428D5
:100E100001D11D4844602846BDE83040B9E51B4873
:100E20000068C0F3075070471848001D00687047FD
:100E3000164864300068704714486830006870478E
:100E4000124900200968C9B2AA2900D001207047C0
:100E50000E480068C0F3034070470C4A183A002956
:100E6000116801D0014300E08143116070470146E1
:100E7000064A0020121F12680A4200D00120704763
:100E80000249091F086070470000F81F1C3C02401F
:100E9000734910B5884206D10121084600F04FFB86
:100EA0000021012044E06F49884206D1012102203F
:100EB00000F045FB002102203AE06B49884206D150
:100EC0000121042000F03BFB0021042030E06749B1
:100ED000884206D10121082000F031FB00210820C2
:100EE00026E06349884206D10121102000F027FB4B
:100EF000002110201CE05F49884206D101214020DA
:100F000000F01DFB0021402012E05B49884206D121
:100F10000121802000F013FB0021802008E05749C8
:100F2000884209D10121202000F009FB0021202066
:100F3000BDE8104000F003BB10BDF0B50023012454
:100F40005FF003070D6804FA03F21540954240D1A3
:100F5000D0F800C05E0007FA06F52CEA050CC0F8D0
:100F600000C091F804C0D0F800E00CFA06FC4CEA8E
:100F70000E0CC0F800C091F804C0BCF1010F02D003
:100F8000BCF1020F1DD1D0F808C02CEA050CC0F846
:100F900008C091F805C0D0F808E00CFA06FC4CEA4D
:100FA0000E0CC0F808C0B0F804C02CEA020CA0F87F
:100FB00004C0B0F804C08A799A404CEA020CA0F848
:100FC00004C0C268AA43C260CA79C568B2402A4355
:100FD000C2605B1C102BB5D3F0BD4FF6FF710160F2
:100FE0000021017141718171C171704741F48032FA
:100FF000C261C161C261C169C06970470246002017
:10100000128A0A4200D001207047008A70470246C7
:101010000020928A0A4200D001207047808A7047DF
:1010200001837047418370470AB101837047418350
:10103000704781827047828A4A40828270474B079C
:10104000DB0E9A40C90810B500EB8100016A0F243D
:101050009C40A1430162016A1143016210BD00007E
:10106000000002400004024000080240000C024060
:101070000010024000180240001C02400014024010
:1010800010B501214C02204600F06DFA2046BDE863
:101090001040002100F067BA484801688906FCD575
:1010A00070470246454800B5001F016821F07F7176
:1010B0000160D2E900131943036819430160FFF787
:1010C000EBFF3E480838016821F07E0101600168AD
:1010D00093681943D2E9033213431943016000BDF9
:1010E0000021016041608160C16001617047344945
:1010F0000860704732498031086070473049C861E4
:1011000070472E49091F0A6822F070020A600A68B7
:1011100002430A6070472949091F0A6822F4607275
:101120000A600A6802430A607047244A121F136863
:1011300023F4783313601368084303431360704744
:101140001E49091F0A6822F4E0520A600A68024335
:101150000A607047194A0C3242F82010704719494A
:10116000012008607047154A121F0029116801D03C
:10117000014300E0814311607047104A014600209E
:1011800012680A4200D0012070470C49091D08600E
:1011900070470A4A00211268024200D00121074A22
:1011A000121F1268024202D009B1012070470020CC
:1011B00070470249091D086070470000082400407C
:1011C000008004420881044210B501210C0720462A
:1011D00000F0C9F92046BDE81040002100F0C3B975
:1011E0003B49086270473B4A116821F0E001014326
:1011F00011607047364908617047354AA032815006
:101200007047334988627047314948627047314AB4
:10121000116821F4C051014321F00C0010607047A7
:101220002C490028086806D040F0010008600868D2
:1012300040F4804005E020F480400860086820F019
:10124000010008607047234B1A6822F00302024332
:101250001A602148026822F004020260012901D0CC
:1012600020BF704730BF70471A4B1A6822F0030244
:1012700002431A601848026842F004020260012921
:1012800005D020BF016821F004010160704730BF24
:10129000F8E71048016841F004010160016841F07D
:1012A000020101600C48016841F00401016030BF97
:1012B0007047084A0146002052680A4200D00120C7
:1012C000704704490A6842EA8000086070470000DD
:1012D00000000E420070004010ED00E0C5480168BB
:1012E00041F480710160C34908310A68C24B1A4059
:1012F0000A600268C14B1A400260026822F4802230
:101300000260086820F47D0008600020091D086064
:101310007047B8490022891C0A700870704701465E
:1013200000204A09012A0AD0B24A3432126801F078
:101330001F0101238B40134200D001207047AD4AAA
:10134000F4E730B500244FF4A0653120FFF7E7FF44
:10135000641CAC4201D00028F7D03120FFF7DFFF3A
:10136000002800D0012030BDA249C91D0870704777
:10137000A04A121D116821F46041014311607047B9
:101380009F49086270479B49091D0A6822F4F85278
:1013900042EA002008607047994908607047954903
:1013A000002235310A70087070479649086070470E
:1013B000114301438F480A30017070479049086615
:1013C00070478F49086770478E492C310860704715
:1013D000084388490B3108707047864A0832116803
:1013E00021F0030101431160704782480830006812
:1013F00000F00C0070477F4A0832116821F0F001BC
:101400000143116070477B4A0832116821F4E061A2
:10141000014311607047774908310A6822F460522D
:1014200042EAC00008607047724910B508310A6886
:10143000A1F1040412F00C034FF4004205D0042B78
:1014400009D0082B09D00C2B09D02368C3F34233F1
:101450005B1C9A4018E06C4A16E06C4A14E00A687B
:101460000B6802F470126A4C03F4400304EB9242DE
:101470001278012404EB93530C6814F4803F1ED0BF
:10148000624C6243B2FBF3F202600A68604B02F006
:10149000F002120909339C5C0268E24042600C6869
:1014A00004F4E064240A1C5D22FA04F484600968F0
:1014B00001F46051C90A595CCA40C26010BD524C67
:1014C000DFE7C0F30141032907D14A4A116821F03F
:1014D000C04300F0C04119431160464934310A68E5
:1014E00022F440320A600A6800F4403002430A6085
:1014F0007047444958310860704742495C31086080
:1015000070473C4A1C320029116801D0014300E0B9
:10151000814311607047374A20320029116801D099
:10152000014300E0814311607047324A24320029B0
:10153000116801D0014300E08143116070472D4ADA
:1015400010320029116801D0014300E0814311608D
:101550007047284A14320029116801D0014300E085
:10156000814311607047234A18320029116801D065
:10157000014300E08143116070471E4A2832002970
:10158000116801D0014300E0814311607047194A9E
:101590002C320029116801D0014300E08143116021
:1015A0007047144A30320029116801D0014300E02D
:1015B0008143116070470F4A0D320029117801D024
:1015C000014300E08143117070470A4834300168DC
:1015D00041F08071016070470146064A00200C32DC
:1015E00012680A4200D00120704702490E3108708B
:1015F00070470000003802400CC0FF88FEFFFEEE7E
:1016000000004742800647420024F40000127A009E
:1016100000000020FF4A10B50020CA2111605321AC
:101620001160FC4918390B6823F0A0030B60CC1340
:101630000B68401C03F02003A04201D0002BF7D020
:101640000868800601D5012000E00020FF2111601C
:1016500010BDF04800211838026852060FD44A1E07
:10166000026043140268491C02F04002994201D012
:10167000002AF7D00068400601D4002070470120FE
:10168000704770B50026E34DCA20344628605320C9
:101690002860FFF7DEFFE8B3DE4900202439086048
:1016A000DC4A42F20111203A1160121D116801F06A
:1016B000070111605414111D0B68761C03F004031C
:1016C000A64201D0002BF7D00B685B0729D5136821
:1016D0001060D04B4FF6FF72103B1A601B1FCE4AB2
:1016E0001A60CC4A0C3A1060121D1060121D106076
:1016F000C84A08321060C74A18321060C54A203202
:101700001060121D10600860C2491C310860FFF7AC
:1017100081FF00E001E020B10124FF202860204685
:1017200070BD0024F9E7BB481838016821F080013A
:101730000160704770B5B74E04460025CA2030607E
:1017400053203060FFF785FFA8B1B2481C3801680C
:1017500021F0400101600168226811430160AD4839
:10176000A168143801600168A28841EA0241016061
:10177000FFF7D9FF0125FF203060284670BD00210A
:1017800001607F214160FF2181607047A14908B15C
:10179000FF2002E0CA20086053200860704770B53F
:1017A0009C4C06460025CA20206053202060FFF78D
:1017B00050FF60B197481C38016816B141F0100124
:1017C00001E021F010010160FFF7ADFF0125FF20CE
:1017D0002060284670BD8F4ACA21116053211160D4
:1017E0008C491C390028086802D040F0200001E034
:1017F00000F0DF000860FF20106070472DE9F04125
:10180000864F0C4602004FF0000620783A683146B9
:101810004FEA426204D0002A2FDA00F0EFFB2DE0FD
:10182000002A00DBE17000F0DDFB0504607800F0C9
:10183000D9FB45EA0025A07800F0D4FB0543E07809
:1018400045EA0045734CCA20206053202060FFF712
:1018500000FF68B172480540704808380560FFF71E
:1018600062FF3868800602D4FFF7D4FE00B101267B
:10187000FF2020603046BDE8F081E170A07821783B
:1018800040EA01456078E178000240EA0140054302
:10189000D8E70021C170017041708170704710B5A8
:1018A0000C465E49083909685D4A1140C1F305429A
:1018B0002270C1F30623637001F07F0301F48001FD
:1018C000090CA370E17000280BD1104600F096FBC4
:1018D0002070607800F092FB6070A07800F08EFBC2
:1018E000A07010BD4B48001D00684C49091F0968D5
:1018F000704770B50C46010060784FF0000610D0BC
:1019000000F07CFBA07800F079FBA078E17840EA59
:101910000145607821784FEA002040EA41300543D4
:1019200015E0C10603D520F010000A306070E078A1
:1019300000F058FB0504607800F054FB45EA0025F0
:10194000A07800F04FFB0543207845EA4035314C44
:10195000CA20206053202060FFF77BFE70B1314821
:1019600005402E48001F0560FFF7DDFE2B4800688C
:10197000800602D4FFF74EFE00B10126FF20206052
:10198000304670BD01210170817041700021C1702D
:10199000704710B50C462149091F0968214A1140BA
:1019A0000A0CE270C1F30423637001F03F03A370DB
:1019B000C1F34231217000280BD1104600F01EFB0C
:1019C000E070607800F01AFB6070A07800F016FB01
:1019D000A07010BD70B514460D46104A00210028B5
:1019E00010684FEA406005D0002837DA207800F010
:1019F00005FB34E0002800DBE170207800F0F2FA0B
:101A00000604607800F0EEFA46EA0026A07800F0BE
:101A1000E9FA09E024280040FF007F000828004080
:101A20007F7F7F003FFFFF000643E07846EA0046E5
:101A3000207B00F0D7FA46EA0060A168FB4A084321
:101A400061680843CA21116053211160B5F5807F98
:101A500016D0111F0860FF20106070BDE170207B60
:101A600000F0CCFAA0782178E27840EA0140617871
:101A7000090241EA02410843217B40EA0160DCE7B8
:101A8000EA490839E6E70021C170017041708170B0
:101A90000122816002734160704710B51446B1F5B0
:101AA000807F2BD0E149091F0968C1F305422270EC
:101AB000C1F30623637001F07F03A37001F4800378
:101AC0001B0CE370C1F30563237301F0804301F045
:101AD0008031C4E9011300280FD1104600F08EFABE
:101AE0002070607800F08AFA6070A07800F086FAC2
:101AF000A070207B00F082FA207310BDCB4908391A
:101B0000D2E730B5C94C0022CA2323605323236097
:101B1000C64B1C3B0029196802D00143196010E034
:101B200081431960C14918394D140B68521C03EAEE
:101B30001023AA4201D0002BF7D0096811EA102027
:101B400000D00120FF21216030BD10B5B74BCA2461
:101B50001C6053241C601143B0F5807F05D0B3484E
:101B600024300160FF20186010BDB0482030F8E735
:101B7000B0F5807F05D0AD4824300068C0F30E007A
:101B80007047AA482030F8E7A84ACA2111605321BB
:101B90001160A6491C390B6823F007030B600B6822
:101BA00003430B60FF2010607047A049CA220A60FF
:101BB00053220A609D4A103A1060FF200860704767
:101BC0009A481038006880B27047984B10B50021D1
:101BD000CA221A6053221A60944A1C3A00281068DC
:101BE00003D040F48060106012E020F48060106048
:101BF0008E4A183A54141068491C00F00400A1429F
:101C000001D00028F7D01068400701D4002000E080
:101C10000120FF21196010BD844B10B5CA221A6043
:101C200053221A60814A1C3A146824F480241460F8
:101C30001468084304431460FF20186010BD7B48FB
:101C40001C38006800F480207047784B10B5CA2219
:101C50001A6053221A60754A1C3A146824F4E0048E
:101C600014601468084304431460FF20186010BD1A
:101C7000F0B56E4C07460025CA200E462060532062
:101C80002060FFF7E6FC30B1684837430C38076046
:101C9000FFF749FD0125FF2020602846F0BD70B503
:101CA000624C06460025CA20206053202060FFF7C2
:101CB000D0FC60B15D481C38016816B141F080016C
:101CC00001E021F080010160FFF72DFD0125FF20DB
:101CD0002060284670BD554ACA2111605321116009
:101CE00052491C390028086802D040F4000001E085
:101CF00020F400000860FF20106070474B4ACA21A2
:101D000011605321116049491C390B6823F40023E9
:101D10000B600B6803430B60FF2010607047F0B549
:101D2000424B0024CA251D6053251D603F4D183DC0
:101D30002E68F60308D59E142F68FF0304D5B4421D
:101D400002D004F10104F7E72C68E40306D4084349
:101D50003649104318310860012000E00020FF21BF
:101D60001960F0BD314B10B51C3B1A6840F60804F1
:101D7000A24342EA000209B142F400622B48CA21A0
:101D80000160532101601A60FF21016010BD70B530
:101D90000D46264914460C310968254A1140234A4C
:101DA000103212684FF63F731A40C1F305432B708F
:101DB000C1F306236B7001F07F0301F48001AB7067
:101DC000090CE9700021E170C2F30421617002F096
:101DD0003F01A170C2F342312170002817D1287849
:101DE00000F00CF92870687800F008F96870A8789D
:101DF00000F004F9A870607800F000F96070A07835
:101E000000F0FCF8A070207800F0F8F8207070BDA9
:101E10000648143000687047044A1C3200291168D3
:101E200008D041EA400010607047000024280040BC
:101E30007F7F7F0021EA4000F5E7754A002911689D
:101E400001D0014300E081431160EDE770490A6869
:101E500022F4C0520A600A6802430A60E4E76C494F
:101E60000A6822F4E0620A600A6802430A60DBE75B
:101E700067490A6822F4C0420A600A6802430A609D
:101E8000D2E763490028086802D040F0800001E0F2
:101E900020F080000860C7E75D490028086802D08C
:101EA00020F4004001E040F400400860BCE7584ADC
:101EB000103242F82010B7E75549103151F8200090
:101EC000B2E753490A6822F480220A600A68024392
:101ED0000A60A9E770B54E4C0022CA231C3C23605F
:101EE000532323604A4B343B1D682D0708D55D14EE
:101EF0001E68360704D5AA4202D002F10102F7E7B4
:101F00001A6812070DD4424A383A1268D20608D429
:101F100001433F4814380160FFF77CFB10B10120FA
:101F200000E00020FF21216070BD30B5384DCA228D
:101F30001C3D2A6053222A60354B20F00404383BB4
:101F40000029334A196800F0040004D021431960C5
:101F50001168014303E0A1431960116881431160D6
:101F6000FF20286030BD0246294900203439096825
:101F7000284B1940114200D0012055E7C0F3100052
:101F800040F08000C14322483438026802F08002E9
:101F90001143016048E71E4A10B51268002102F0A3
:101FA00004031B4A383A1268840C20FA04F40240F5
:101FB00003EAD4331A43184B1B6803EA101003D00A
:101FC0000004000C00D00121084610BDC0F30F1022
:101FD00040F08000C1431048026802F080021143C3
:101FE000016021E7002103E0491C0A38C9B2C0B2F0
:101FF0000A28F9D2090740EA116015E7010901EB47
:10200000810100F00F0000EB4100C0B20CE70000BE
:10201000402800407FFF01000C28004010B504203C
:10202000FFF7ABF80028FAD1FE4A014642F820102B
:10203000401C0F28FAD9BDE81040FFF790B800B552
:1020400085B000204FF47011CDE900010C21029100
:102050004021CDE903106846FFF723F80120FFF780
:102060004DF84FF48050FFF76BF80020FFF753F85E
:102070004020FFF746F8FFF70FF80120FFF737F889
:102080000120FFF77AF80028FAD01020FFF775F842
:102090000028FAD04FF480410020FFF746F8FFF700
:1020A000BDFF05B000BD7CB501213F20FFF729FA37
:1020B0006846FEF792FF48F20E70DB4D0224009056
:1020C0008DF8044069462846FEF737FF0B220121B0
:1020D0002846FEF7B4FF0B2202212846FEF7AFFF89
:1020E0000B2203212846FEF7AAFF0B2208212846CF
:1020F000FEF7A5FF0B2209212846FEF7A0FF0B22C1
:102100000A212846FEF79BFF0B220F212846FEF7E7
:1021100096FF4FF63870C54D00908DF80440694623
:102120002846FEF70AFF0B2203212846FEF787FF09
:102130000B2204212846FEF782FF0B2205212846A8
:10214000FEF77DFF0B2208212846FEF778FF0B22C1
:1021500009212846FEF773FF0B220A212846FEF7C5
:102160006EFF0B2211462846FEF769FF0B220C2159
:102170002846FEF764FF0B220D212846FEF75FFF7D
:102180000B220E212846FEF75AFF0B220F2128466C
:10219000FEF755FF8DF8044040F6CF70A44C009038
:1021A00069462046FEF7C9FE0B2200212046FEF7B5
:1021B00046FF0B2201212046FEF741FF0B220221A0
:1021C0002046FEF73CFF0B2203212046FEF737FF97
:1021D0000B2206212046FEF732FF0B220721204664
:1021E000FEF72DFF0B2208212046FEF728FF0B22C9
:1021F00009212046FEF723FF0B220A212046FEF785
:102200001EFF0B2211462046FEF719FF00213F203A
:10221000FFF777F97CBD70B5824810380068844DAF
:1022200000F4E0544FF4E05610350AE004F5806401
:10223000B44200D900242046FEF782FF642000F05B
:10224000A3FB2888C007F1D070BD764810B51030C8
:10225000016821F420410160724918310A6822F4B2
:1022600020420A600368734A147843EA0433036027
:102270000868527840EA0230086010BDF8B51C4684
:102280006B4600F058FA67486649664A654D083063
:1022900010311832072C7DD2DFE804F07C043B8932
:1022A000DAFCFB002C68644B1C402C6004681C406A
:1022B00004600C681C400C6014681C4014609DF89D
:1022C000003003F0030403F00C0344EA83632C683A
:1022D00023432B609DF8013003F0030403F00C034B
:1022E00044EA83630468234303609DF8020000F01E
:1022F000030300F00C0043EA80600B681843086099
:102300009DF8030000F0030100F00C0041EA80603A
:102310009AE02C68494B1C402C6004681C40046007
:102320000C681C400C6014681C4014602C689DF8FC
:10233000003003F00C0644EA066403F00206B6011E
:1023400003F0010346EA83031C432C6004689DF8F4
:10235000013003F00C0544EA056403F00205AD0109
:1023600003F0010345EA83031C4304600B689DF8F6
:10237000020000F00C0443EA046300F00204A4012C
:1023800000F0010044EA800003430B6011689DF8EF
:10239000030000E028E100F00C0341EA036100F0D3
:1023A00002039B0100F0010043EA80001AE12B6860
:1023B00023F003232B60036823F0032303600B68DF
:1023C00023F003230B60136823F0032313609DF8AD
:1023D000003003F00C04A40503F0030344EA0323D4
:1023E0002C6823432B609DF8013003F00C04A405F6
:1023F00003F0030344EA03230468234303609DF8C6
:10240000020000F00C039B0500F0030043EA0020EB
:102410000B68184308609DF8030000F00C01890563
:102420000EE00000142400400000024000040240BE
:10243000000802401A000020FCFFFFCF03FFFFF35B
:1024400000F0030041EA0020116808431060CBE06F
:102450002C68F64B1C402C6004681C4004600C681F
:102460001C400C6014681C4014609DF8003003F0A0
:102470000C04A40403F0030344EA83232C682343DD
:102480002B609DF8013003F00C04A40403F0030357
:1024900001E059E01AE044EA83230468234303601F
:1024A0009DF8020000F00C039B0400F0030043EAD7
:1024B00080200B68184308609DF8030000F00C01B1
:1024C000890400F0030041EA8020BDE72B6823F473
:1024D00043232B60036823F4432303600B6823F436
:1024E00041230B60136823F4412313609DF80030EF
:1024F00003F00C04240403F0030344EA03332C68C0
:1025000023432B609DF8013003F00C04240403F0F6
:10251000030344EA03330468234303609DF8020085
:1025200000F00C031B0400F0010043EA00300B68CC
:10253000184308609DF8030000F00C01090400F046
:10254000010041EA00307FE72B6823F470332B60F1
:10255000036823F4703303600B6823F470330B605B
:10256000136823F4703313602C689DF8003003F077
:10257000040644EAC63403F00806760303F00303B6
:1025800046EA83331C432C6004689DF8013003F055
:10259000040544EAC53403F008056D0303F00303A2
:1025A00045EA83331C4304600B689DF8020000F089
:1025B000040443EAC43300F00804640300F001009B
:1025C00044EA803003430B6011689DF8030000F07B
:1025D000040341EAC33100F008035B0300F001008B
:1025E00043EA803001431160FFF72FFEF8BD70B55C
:1025F000054601240420FEF7C0FD0028FAD108E0BA
:102600000022234611462846FFF738FE6D1C641C45
:10261000E4B2287808B1082CF2D3BDE87040FEF788
:102620009EBDF8B5054601240420FEF7A6FD00284E
:10263000FAD14FF4804677002888C0B1082C16D212
:102640008DF8000000F47040B04206D0B842234636
:102650004FF0000203D1012102E0234601220021B4
:102660006846FFF70BFEAD1C641CE4B2E4E7FEF71E
:1026700076FDF8BD2DE9FC47884600219146009182
:102680000191002855D00146002502E06D1CEDB2F5
:10269000491C0A78002AF9D10446FFF7A8FF4846EA
:1026A00000F072F9002742E000203CE0461CB6FB37
:1026B000F5F105FB1161615C8DF80010811CB1FB27
:1026C000F5F205FB1211615C8DF80110C11CB1FB24
:1026D000F5F205FB1211615C8DF80210011DB1FBD2
:1026E000F5F205FB1211615C8DF80310411DB1FB81
:1026F000F5F205FB1211801D615C8DF80410B0FB32
:10270000F5F105FB1100205C8DF80500FFF786FC54
:102710006846FFF76CFF46480078002809D1484614
:1027200000F032F9F0B2A842C0D37F1CFFB2474597
:10273000BAD3BDE8FC8770B50078002435286DD089
:1027400018DC30286AD00CDC2A284DD004DC202884
:1027500035D0252822D15BE02D2851D02F281DD13E
:1027600051E031285AD0322858D0332856D0342856
:1027700014D153E06D283DD008DC36284ED03728E0
:102780004CD038284AD0392808D147E06E2834D0B8
:10279000B0283AD0B5282AD0FF283CD0A0F1410675
:1027A000244D1A2E03D205EB400434F8824CA0F1DC
:1027B00061061A2E03D205EB400030F8C24C09B175
:1027C00044F002040AB144F020040C215FF0000040
:1027D00024FA01F202F00F021A54091F401CC0B281
:1027E000C9B20428F4D370BD4AF2DD04E7E746F22B
:1027F0008404E4E74BF21024E1E742F21024DEE720
:102800004FF42044DBE7C024D9E74FF46C44D6E70B
:102810004FF43344D3E74FF6DD74D0E7054C34343E
:1028200004EB400030F8604CC9E70000FFF3CFFF35
:10283000190000203C6100087047FEE7FEE7FEE754
:10284000FEE7FEE7FEE7FEE702F00CBC2DE9F047ED
:10285000454A0020012111700A0544490CE0401C42
:10286000904209D1FEF760F801214148FEF71DF9B9
:10287000BDE8F047FEF7CFB80B8ADB07EFD13C4845
:10288000007800282CD13B480178491CC9B201705E
:10289000072901D100210170384801F0FF08DFF855
:1028A000D890037890F801C08025402609F10201F4
:1028B00023F008074CF0080243F00804B8F1070FB2
:1028C0000ED2DFE808F0040A0F131B202800A9F835
:1028D00000500E802CF00A010CE00E80A9F8005088
:1028E000BDE8F0870D80A9F80060F9E70D800E8043
:1028F00022F00201417027F0020113E00D800E80EA
:1029000022F0020103E00D800E8042F002014170CE
:1029100024F0020106E00D800E8042F002014170B9
:1029200044F002010170DBE710B5012080F310884C
:102930001348007810B1FFF789FF02E01149012028
:1029400008700120FDF7C1FF002080F3108810BD42
:1029500010B54FF48040FFF739FBBDE810404FF44D
:102960008010FDF7B2BF00001900002000000240F7
:10297000040008081C000020180402401A0000206F
:10298000740000204000002010B50446A0B2FE49AB
:1029900002F07EFB0028F9D110BD2DE9F04186B090
:1029A00000258DF80450DFF8E48301248DF80750EA
:1029B000032600948DF8056069464046FEF7BDFA8F
:1029C00000210846FDF740FC8DF80C5008208DF8DA
:1029D0000D0002948DF80E4002A8FDF718FF0620A6
:1029E0008DF810000F208DF811008DF812008DF871
:1029F000134004A8FDF7C7FC8DF804408DF806507D
:102A00008DF80750C020E24D00908DF805406946D2
:102A10002846FEF792FADE4880211A3001804021D4
:102A20000180CC01DB4F694638460094FEF785FAF9
:102A3000D8481830048048F20E70022400908DF8B7
:102A4000044069464046FEF778FA0B2201214046D1
:102A5000FEF7F5FA0B2202214046FEF7F0FA0B22B0
:102A600003214046FEF7EBFA0B2208214046FEF711
:102A7000E6FA0B2209214046FEF7E1FA0B220A2171
:102A80004046FEF7DCFA0B220F214046FEF7D7FA4C
:102A90004FF6387000908DF8044069462846FEF7DE
:102AA0004CFA0B2203212846FEF7C9FA0B22042117
:102AB0002846FEF7C4FA0B2205212846FEF7BFFA86
:102AC0000B2208212846FEF7BAFA0B2209212846D4
:102AD000FEF7B5FA0B220A212846FEF7B0FA0B22C0
:102AE00011462846FEF7ABFA0B220C212846FEF7CA
:102AF000A6FA0B220D212846FEF7A1FA0B220E2181
:102B00002846FEF79CFA0B220F212846FEF797FA7B
:102B100040F6CF7000908DF8044069463846FEF7C5
:102B20000CFA0B2200213846FEF789FA0B2201210C
:102B30003846FEF784FA0B2202213846FEF77FFA68
:102B40000B2203213846FEF77AFA0B22062138467B
:102B5000FEF775FA0B2207213846FEF770FA0B22B2
:102B600008213846FEF76BFA0B2209213846FEF79A
:102B700066FA0B220A213846FEF761FA0B2211464B
:102B80003846FEF75CFA102000908DF80460694624
:102B90004046FEF7D2F906B0BDE8F08110B501203D
:102BA000FEF7FAFB2120FEF7BAFB0028FAD001203D
:102BB000FEF713FC4FF44040FEF7DAFB01213F2003
:102BC000FEF79FFC01217448FEF7AFFC012140F2A3
:102BD0000120FEF7A0FC0120FEF702FB0120FEF71A
:102BE0008CFC0020FEF789FC0120FEF7D8FB492071
:102BF000FEF795FB0028FAD04FF48030FEF761FC19
:102C00000120FEF776FC0020FEF783FB3120FEF763
:102C100086FB002800D0FEE710BD00F05CFB5A4D9B
:102C2000AD1EA8800220FEF744FB48B10121080731
:102C3000FEF77BFC0220FEF744FB4FF0010801E0A9
:102C40004FF00008FEF704F900070AD0FDF7EBFF8C
:102C500040F60270FEF714F90020FEF7B3F8FDF716
:102C6000F8FFFFF79BFF4FF40060FEF7D0FA10204B
:102C7000FEF71FFB0028FAD1FFF78FFE00F0ABFA3A
:102C8000002080F3108801F06DF9FFF7D8F9434C6C
:102C9000002727704249012008703C48008AC0077D
:102CA00001D000F088FF3F4EB8F1000F04D030781B
:102CB000A8B300F037FF56E0FDF736FE0021394893
:102CC000FDF7F3FEFDF7A7FE2F484B220121001D63
:102CD000FFF7D0FC2078002845D14FF44041880010
:102CE000FEF723FA30A0FFF782FC207810B9962077
:102CF000FFF74AFE207810B99620FFF745FE2078AE
:102D000010B99620FFF740FE207810B99620FFF703
:102D10003BFE4FF480410020FEF707FA23E0FFE777
:102D20004B22012122A0FFF7A5FC2649A88809789B
:102D3000884201D9401AA88000F09FFC8046A888EC
:102D400003F07EF8414603F08FF86FF00B0103F0BB
:102D5000B7F91D4903F088F803F052F800F073FD4D
:102D600020780028FCD027701848417821F008020C
:102D7000017822F00202427021F00A010170044938
:102D800080201831088023E01E000020000002404F
:102D900000040240000802400002009019000020D8
:102DA00074000020040008084A5031204F4E0000F3
:102DB00020202020205354414E4442592057414B5B
:102DC00045555000000008080000A0411A000020EE
:102DD0004020891C08802F70307808B100F0FAFD7F
:102DE000287807287ED2DFE800F00410171E5488E8
:102DF000B5006648018881F040010180018881F0BA
:102E00008001018000F04EFC3FE001F0B4F80028A2
:102E100001D101F0F3F8B3E001F0ADF80028FAD1E8
:102E200001F017F9ACE05AA0FFF7E1FB207810B9E8
:102E30009620FFF7A9FD00F08EFC207810B99620AF
:102E4000FFF7A2FD207810B99620FFF79DFD2078AE
:102E500010B99620FFF798FD207810B99620FFF75B
:102E600093FD4DA0FFF7C3FB207810B99620FFF724
:102E70008BFD00F0E4FE34E09620FFF785FD35E0A1
:102E8000207810B99620FFF77FFD207800285DD0CC
:102E900076E043A0FFF7ABFB207810B99620FFF750
:102EA00073FD00F0FBFE207810B99620FFF76CFD53
:102EB000207810B99620FFF767FD207810B996208A
:102EC000FFF762FD207810B99620FFF75DFD36A070
:102ED000FFF78DFB207810B99620FFF755FD00F025
:102EE000FFFE00E047E020780028C5D020780028C9
:102EF000C6D19620FFF748FDC2E72DA0FFF777FB6C
:102F0000207810B99620FFF73FFD00F017FF2078DA
:102F100010B99620FFF738FD207810B99620FFF7FA
:102F200033FD207810B99620FFF72EFD207810B9D8
:102F30009620FFF729FD20A0FFF759FB207810B954
:102F40009620FFF721FD00F0E5FCCAE79620FFF789
:102F50001BFD15E01AA0FFF74AFB207810B9962058
:102F6000FFF712FD207810B99620FFF70DFD06201F
:102F700000F0CBF904E0FFF751F813A0FFF737FB9F
:102F8000277029E701F0DABC704700001404024002
:102F90002052554E2020000020534C454550200023
:102FA0004C502052554E00004C5020534C500000C5
:102FB0002053544F5020000053502D4E5254430084
:102FC00053544259202000004552524F52000000F5
:102FD000401EB0F1807F01D3012070474FF0E02107
:102FE0004861FF4AF02010700020886107200861C6
:102FF000002070472DE9FC41FA480268FA49FB4C71
:103000004A602268FA4D8A602A68FA4BCA601A68D8
:103010000A61F94A16684E61F84E37688F61C768D1
:10302000CF61F24F0C373F680F62F14F0C373F68AA
:103030004F62F04F0C373F688F62D768CF62EF4F17
:103040000C373F680F6300218DF8051003278DF8BA
:1030500004708DF806108DF80710491E1960116074
:1030600031604FF6EE7100916946FDF766FF4DF64F
:10307000FF70009069462846FDF75FFF4FF63F70EE
:10308000009069462046FDF758FFD84840211A3085
:10309000018080210180BDE8FC81D34810B5D14971
:1030A00042680A60D14B82681A60D14BC2681A60CC
:1030B000D04B02691A60D04A43691360CF4C8369D0
:1030C0002360C369CB60C94B016A0C331960C84BDC
:1030D000416A0C331960C74B816A0C331960C16AAD
:1030E000D160C649006B0C31086010BD1FB5684641
:1030F000FEF79AF901984FF4FA61B0FBF1F0FFF78F
:1031000067FF1FBD1FB56846FEF78EF9019840089E
:10311000FFF75EFF1FBD70B514460D460646FEF76D
:10312000DDF80020FDF7D8FB0020FDF7DCFB0020D8
:10313000FDF7E4FB0120FDF7ECFB01210807FEF79A
:10314000F4F94FF4C050FEF762F81020FEF7B1F822
:103150000028FAD13046FEF70BF90020FEF73DF9C2
:10316000FEF743F90028FBD115B18020FEF743F9A3
:103170000020FEF711F90020FEF7CBF814B900206B
:10318000FEF70DF9BDE870400020FEF70EB910B54E
:103190000120FEF701F92120FEF7C1F80028FAD03E
:1031A0000120FDF7ABFB0120FDF79DFB0120FDF7A2
:1031B00093FB0120FEF711F9FEF717F90428FBD164
:1031C0000020FEF718F90020FEF725F9BDE81040B1
:1031D0000020FEF718B910B5012186B04802FEF7AD
:1031E0009AF9874C2046FDF721F96846FDF74FF91B
:1031F0000021012000918DF804008DF80510029146
:1032000004918DF8140069462046FDF71FF9062346
:10321000012204212046FDF78DF910212046FDF7FB
:1032200069F901224FF440312046FDF75BF9012195
:103230002046FDF743F940212046FDF7B2FA002869
:10324000F9D006B010BD70B5FFF7C5FF0120FDF73E
:1032500066F96B4E0623012211213046FDF76AF90B
:10326000002504243046FDF7D1F902213046FDF750
:1032700098FA0028F9D03046FDF7FAF92844641E80
:1032800085B214F0FF04EDD10020FDF748F90021CC
:103290004FF40070FEF73FF9A80870BD30B55949EA
:1032A0000A68C261574B08331A6842620C1D2268D3
:1032B00002621A1D15688562524D14352D6805632A
:1032C000151D2D68C562052008601060E0051860B6
:1032D0000020206030BD70B5FFF77DFF0025484E0F
:1032E00004243046FDF792F902213046FDF759FAE1
:1032F0000028F9D03046FDF7BBF9641E28442404A9
:1033000085B2240CEDD1A80870BD2DE9F047DFF897
:10331000F890DFF8DCA090B000240AF1180A89F8D0
:1033200000404FF400560746AAF80060214670009E
:10333000FEF7FBFD0020FDF7DAFE0120FDF71DFF83
:103340000128FAD028480470FFF754FE0020FDF74A
:1033500058FFDFF8B0804FF440404FF0E02508F10F
:103360000808072F58D2DFE807F004586990A7A78C
:10337000C10000221146FFF7CEFE6846FFF78EFF20
:103380002C61C8F8004000204FF6FF7100BF00BF5D
:1033900000BF00BF00BF00BF00BF00BF00BF00BF35
:1033A00000BF00BF00BF00BF00BF00BF00BF00BF25
:1033B00000BF00BF00BF00BF00BF00BF00BF00BF15
:1033C00000BF00BF00BF00BF00BF00BF00BF00BF05
:1033D00000BF00BF00BF00BF00BF00BF00BF15E0BF
:1033E00023ED00E000000240400000200004024005
:1033F00000080240000C024000100240001402408D
:10340000002401401C3802407400002000BF00BFAF
:1034100000BF401C8842B9D397E000221146FFF755
:103420007AFE6846FFF73AFFFFF76CFE0120FFF7D0
:10343000ABFA01210020FDF706FF86E00020FDF732
:10344000D9FE0120FDF7E0FE6846FFF727FF2C615B
:10345000002201211046FFF75EFE0120FDF7E0FE8D
:103460002020FDF726FF0028FAD0012080F31088E5
:1034700002F09FFA002080F31088FDF7D1FE202093
:10348000FDF717FF0028FAD15FE00020FDF7B2FE3C
:103490000120FDF7B9FE6846FFF700FF2C6100220E
:1034A00001211046FFF737FE012080F3108802F05B
:1034B00085FA84F3108848E00020FDF79BFE012088
:1034C000FDF7A2FE6846FFF7E9FE2C61052F0BD041
:1034D000012201210020FFF71EFE3D480680012148
:1034E0000846FDF7C1FE30E00022F2E70020FDF7BC
:1034F00081FE0120FDF788FE4FF48020FEF7E1FCFD
:1035000000214FF4C000FEF7A0FB0220304FCDE9B0
:103510000E601A3F0EA93846FDF70FFD00220D215F
:103520003846FDF78CFD6846FFF7B8FE2C61002297
:1035300001211046FFF7EFFD01210020FDF75DFEA0
:103540000120FDF761FEFDF7A4FEFFF720FEFFF767
:10355000CDFD07981F490860C814FDF758FE1020DC
:10356000FDF7A7FE0028FAD1FFF7B5FE0446AAF83A
:103570000060012189F800100999C8F80010089826
:103580001449091D08600A9812490C3108600C980A
:103590001049143108600B98091F0860FFF7FEFA04
:1035A0000020FDF73DFE0020FDF72EFE0020FDF778
:1035B000B0F9FFF772FD0120FDF783FE0120FDF752
:1035C00019FEFEF73CFD10B02046BDE8F087000074
:1035D0001A0802401C380240F0B542F21077B0FBE6
:1035E000F7F207FB12024FF47A76B2FBF6F306FB12
:1035F00013226424B2FBF4F304FB13220A25B2FB6A
:10360000F5F305FB1322831AB3FBF5F3B3FBF6FCCA
:1036100006FB1C33B3FBF4FC04FB1C33B3FBF5FCCF
:1036200005FB1C33A0EB030CACEB020CBCFBF4FC65
:10363000BCFBF4FE04FB1EC4B4FBF5FC05FB1C4400
:10364000A0EB040CACEB030CACEB020CBCFBF6F6F1
:10365000B6FBF5FC05FB1C65401B001BC01A801A5D
:10366000B0FBF7F0303230330A813034CB80303564
:103670008C804D8030300880F0BD10B5FFF7E3FD41
:1036800002F034FB02460B46F748F84902F0D6F93F
:103690000C2202F0E7FC02F097F9BDE81040F44973
:1036A00002F0E2BB3EB5FFF7E8FF02F0A9FB84B2EF
:1036B00069462046FFF790FF5620BDF80210ADF88E
:1036C0000A00202041F40041ADF80210ADF80800D6
:1036D000ADF800006846FEF7A4FF20463EBDFEB5EB
:1036E000E4A0FEF784FF9620FFF74EF9FFF7DAFF1C
:1036F00004469620FFF748F9A4F66830B52823D38E
:10370000562620254B220121DCA0FEF7B3FF962090
:10371000FFF73AF969462046FFF75EFFBDF8020061
:10372000ADF80A6040F40040ADF80200ADF8085072
:10373000ADF800506846FEF774FF9620FFF724F9B5
:103740009620FFF721F9DDE7CFA0FEF750FF962086
:10375000FFF71AF9FEBD3EB50020FFF7D6FD05467E
:10376000FFF78BFF0446284602F06AFB214602F071
:103770007BFB6FF00B0102F0A3FCC54902F074FB68
:10378000044602F03DFB6946FFF726FF4120ADF8F5
:103790000A006D20ADF808002020ADF80600BDF845
:1037A000000040F40040ADF800006846FEF739FF25
:1037B00020463EBD2DE9FE43B6A0FEF718FF962039
:1037C000FFF7E2F8FFF7C7FF02F0FEFA84B2962097
:1037D000FFF7DAF8A4F5B850703841F28931884221
:1037E00029D30025AD4E41274FF06D084FF0200939
:1037F00035704B220121AAA0FEF73CFF9620FFF76F
:10380000C3F869462046FFF7E7FEBDF80000ADF8B3
:103810000A7040F40040ADF80000ADF80880ADF843
:1038200006906846FEF7FDFE9620FFF7ADF896205D
:10383000FFF7AAF8DCE79DA0FEF7D9FE9620FFF778
:10384000A3F8BDE8FE830EB56946FFF7C5FE41202B
:10385000ADF80A00B520ADF80800BDF8000030282A
:10386000BDF8020040F4004002D0ADF802000CE0C8
:10387000ADF80000BDF80400ADF80200BDF8060088
:10388000ADF804002020ADF806006846FEF7C9FE3A
:103890000EBD70B587A0FEF7AAFE9620FFF774F85C
:1038A000FFF7EBFE854C0546207802F0C9FA294661
:1038B00002F0DAFA6FF00B0102F002FC804902F02C
:1038C000D3FA02F09DFA0546FFF7BDFF9620FFF7F9
:1038D0005BF821781E2908D839B17AA0FEF787FE57
:1038E000BDE870409620FFF74FB86C4C002626705C
:1038F0004B22012175A0FEF7BDFE9620FFF744F88C
:103900002846FFF7A0FF9620FFF73EF89620FFF726
:103910003BF8ECE770B50520FFF7F7FC0446674875
:103920000078844201D9201A84B2FFF7A6FE05462A
:10393000204602F085FA294602F096FA6FF00B0154
:1039400002F0BEFB5E4902F08FFA044602F058FA1C
:10395000FFF779FF204670BD70B55FA0FEF747FE08
:103960009620FFF711F8FFF7D5FF02F02DFA84B289
:103970009620FFF709F8A4F1FA0040F227218842C7
:1039800014D3464E002535704B22012154A0FEF77A
:1039900071FE9620FEF7F8FF2046FFF754FF9620B1
:1039A000FEF7F2FF9620FEF7EFFFECE750A0FEF7E0
:1039B0001EFEBDE870409620FEF7E6BF10B54EA093
:1039C000FEF715FE9620FEF7DFFFBDE8104006204B
:1039D000FFF79BBC0EB54A4A07CA8DE80700FCF703
:1039E000A3FF01214748FDF760F8FDF714F84648AA
:1039F000802101804021018044484178027821F0F3
:103A00000A01417022F00A01017041A0FEF7EFFDAA
:103A10009620FEF7B9FF5620ADF8020048F23200BA
:103A2000ADF80400801EADF806003420ADF80800A3
:103A30006846FEF7F6FD9620FEF7A6FF9620FEF7F5
:103A4000A3FFFFF74CFEFFF7B5FEFFF722FFFFF7DE
:103A500083FFFFF7B3FF114C00254B2201212EA05D
:103A6000FEF708FE2570F8E72FDD24068195F33F69
:103A700000007A442056444420000000564444206C
:103A80004552524F52200000564444204F4B0000F4
:103A90000000C84252554E2020200000190000208E
:103AA00052554E204552524F5220000052554E2042
:103AB0004F4B0000424941532020200000000808DD
:103AC0000000A041424941534F4B0000424941533D
:103AD000204552524F52200053544F502020000096
:103AE0004943432053544F50204552524F522000D7
:103AF00053544F504F4B0000535442592020000064
:103B000084610008040008081A0402401A0000201A
:103B1000205445535420000054455354204F4B200B
:103B2000000000009E4C9F4821880078814201D906
:103B3000081A2080FFF7A1FD0546208802F080F9D1
:103B4000294602F091F96FF00B0102F0B9FA96499B
:103B500002F08AF9044602F053F90646FFF773FEB5
:103B60009620FEF711FF9148914D20440024B0F5B6
:103B70004B0F12D92C704B2201218EA0FEF77AFD3B
:103B80009620FEF701FF3046FFF75DFE9620FEF718
:103B9000FBFE9620FEF7F8FEECE78AA0FEF727FD75
:103BA0009620FEF7F1FE4B220121AFF29400FEF7C2
:103BB00061FD2C70F7E74B22012184A0FEF75AFD2E
:103BC0000520FFF7A2FB0546FFF757FD04462846F0
:103BD00002F036F9214602F047F96FF00B06314644
:103BE00002F06EFA704F394602F03EF902F008F921
:103BF000FFF729FEFCF798FEE9B26A48FCF755FF8B
:103C0000FCF709FF4FF448780520FFF77EFB0546D7
:103C1000FFF733FD0446284602F012F9214602F070
:103C200023F9314602F04CFA394602F01DF902F050
:103C3000E7F8FFF708FE4046FEF7A6FEE4E73EB5CC
:103C40000120FFF762FB0546FFF717FD04462846F3
:103C500002F0F6F8214602F007F96FF00B0102F0CE
:103C60002FFA634902F000F9044602F0C9F86946E8
:103C7000FFF7B2FC4120ADF80A006D20ADF8080056
:103C80002020ADF80600BDF8000040F40040ADF87B
:103C900000006846FEF7C5FC20463EBD70B5022018
:103CA000FFF733FB04463F480078844201D9201ACD
:103CB00084B2FFF7E2FC0546204602F0C1F829462F
:103CC00002F0D2F86FF00B0102F0FAF9364902F077
:103CD000CBF8044602F094F8FFF7B5FD204670BD1E
:103CE00070B50320FFF711FB04462E48007884428C
:103CF00001D9201A84B2FFF7C0FC0546204602F025
:103D00009FF8294602F0B0F86FF00B0102F0D8F9E5
:103D1000254902F0A9F8044602F056F835498842D0
:103D200005DA204602F06CF8FFF78DFD04E0FEF79F
:103D300075F931A0FEF75BFC204670BD70B504201C
:103D4000FFF7E3FA044617480078844201D9201AA5
:103D500084B2FFF792FC0546204602F071F829462E
:103D600002F082F86FF00B0102F0AAF90E4902F09E
:103D70007BF8044602F028F81E49884205DA2046FE
:103D800002F03EF8FFF75FFD07E01D48007820B91C
:103D9000FEF744F918A0FEF72AFC204670BD00008B
:103DA00020000020000008080000A0410000EABC3C
:103DB0001900002049434320535442592045525290
:103DC0004F522000535442594F4B000020202020D6
:103DD00020202A2A20424941532043555252454E21
:103DE00054202A2A204A5031204F4646202A2A00B1
:103DF0000000C8429F8601004572726F7200000089
:103E0000040008084D4810B5016841F48071016054
:103E10004A4908310A684A4B1A400A600268494B0D
:103E20001A400260026822F480220260086820F4CE
:103E30007D000860091D0020086000F044F8424938
:103E40004FF00060086010BD3C4910B508310868AB
:103E5000A1F1040410F00C033C484FF4004205D0DB
:103E6000042B09D0082B09D00C2B09D02368C3F3ED
:103E700042335B1C9A4019E0354A17E0354A15E099
:103E80000A680B6802F47012304C03F44003241DDE
:103E900004EB92421278012404EB93530C6814F45F
:103EA000803F0ED02B4C6243B2FBF3F202600968F4
:103EB000264AC1F303110D32515C0268CA40026008
:103EC00010BD234CEFE71D48016841F0010101607E
:103ED000016811F0020FFBD0006880072DD51E4845
:103EE000016821F001010160016821F00201016017
:103EF000016821F00401016010482430016841F09C
:103F000080510160C114154801604168C906FCD4A4
:103F10000A480830016801600168016001680160B9
:103F2000016821F003010160016841F001010160B5
:103F30000168C1F381010129FAD1704700380240BC
:103F40000CC0FF88FEFFFEEE08ED00E078000020C8
:103F50000024F40000127A00003C0240007000408F
:103F60007047704710B5524801F016F8BDE8104090
:103F7000504800F0C3B82DE9F0414D4C103C0127EA
:103F8000607828B9207801F047FA01F0AAFA677042
:103F900001F0B1FC002640B900221146207800F063
:103FA000BBF866702078401C20702078012802D071
:103FB0000120BDE8F08126703D4801F01FF83C4823
:103FC00000F0F6F93A4964200E3901F061F870B951
:103FD000394D288880F040002880354800F088FA64
:103FE0000028288805D020F0800028806760002005
:103FF000DFE740F0800028806660F8E7FEB520200B
:10400000ADF80000ADF80200ADF804002F252848F7
:104010008021B0242526ADF808501038ADF80640B0
:10402000ADF80A60406880B1214842F21072083849
:1040300080785043B0FBF1F06946FFF7CDFAADF858
:104040000850ADF80640ADF80A606846FEF7E9FA98
:10405000FEBD1CB5202130208DF800108DF8010028
:104060008DF802008DF803008DF8040010488DF8DB
:10407000051010384068B0B10D48083880787F28A6
:1040800011D2FF216E2802D98DF804100BE05028C0
:1040900002D98DF8031006E0052802D98DF8021028
:1040A00001E08DF801106846FEF7A1FA1CBD000082
:1040B000A80000209C6100081404024009488047C1
:1040C00009480047FEE7FEE7FEE7FEE7FEE7FEE7FA
:1040D000FEE7FEE7FEE7FEE704480549054A064B12
:1040E00070470000053E0008F5000008B0020020FF
:1040F000B0080020B0040020B0040020054910B52D
:10410000486001F021F8002803D1BDE8104001F01B
:10411000A5B810BD840100202DE9F74FA1494FF04B
:10412000000A82B04968564601EB00144FF0080BB4
:10413000D4E900878AE03878A16800EB400551F89F
:104140002500C0F3C102032A7BD140F0010041F8F1
:10415000250098F8000001F0D0FB81460A20A268F3
:1041600000EB85010191505A009022F801908E4990
:104170000A884A450DD9A06850F8251021F006019B
:10418000091D40F82510A26800210BEB8500115293
:104190000EE04988A06849450DD250F8251041F03D
:1041A000060140F82510A26800200BEB8501505253
:1041B0004FF0020A45E000EB850001F0A7FB58B381
:1041C000039838B1039A494600989047A26801992C
:1041D00081465052A168042000EB8500085A4946E8
:1041E00001F096FB814601F08EFBA16851F8252075
:1041F00060F3420241F82520049838B104994846FA
:104200008847A2680BEB850150521AE0A2680BEBBD
:10421000850122F8019014E0A168042000EB8500DC
:10422000085A494601F074FBA2680BEB8501505215
:1042300001F069FBA16851F8252060F3420241F8C2
:1042400025207F1C761C08F10308F6B2A089B04235
:104250003FF671AF05B05046BDE8F08FF0B551495B
:104260004FF0080C496801EB001000210B460425B3
:1042700042680DE012F8014B866804EB440405EB3C
:104280008407F35386680CEB8404491C3353C9B28A
:1042900084898C42EED8F0BD2DE9F14F414882B0BF
:1042A000424C41680298DFF800B101EB001520781C
:1042B00000264FF0040A28B101F01DFB38B3022894
:1042C0001ED052E0BBF804005D46042805D010283B
:1042D00006D00820A880032000E00220A08001E092
:1042E000A4F804A00298FFF7B9FF029801F094F82F
:1042F00030B901F0F6F801202070A888608034E021
:104300000298FFF7ABFF26700220BDE8FE8FD5E9CB
:10431000008900271EE000BF99F80000009098F87F
:10432000000001F0EAFABBF800208242E8D8BBF8AE
:1043300002108142E4D3009AA96802EB42030AEB1F
:1043400083028B5A7F1C1844885209F1010908F135
:104350000308FFB2A889B842DED86088401E000476
:10436000000C608003D001F0BCF80120CDE70020F4
:10437000A388524669680FE011F8017BD5F808C0A0
:1043800007EB470702EB87073CF8078028FA03F89A
:10439000401C2CF80780C0B2AF898742ECD8267049
:1043A0000020B2E784010020B4000020C4000020F7
:1043B000704700002DE9F74F4FF0000980460126B5
:1043C0008A464F464C464D46D0F800B032E058463B
:1043D00000F0D4FD6449C8680078202805D0212861
:1043E00003D0222801D0232806D108690168097862
:1043F00002291DD1878984680020421E14E000BF75
:10440000B4F90810002908D004DAB9F1000F04DC6F
:10441000914606E0B9F1000F01DA002601E04FF005
:1044200001090C34401CC0B2B842E9D30BF1080BAF
:104430006D1CEDB2B8F80400A842C8D80EB1DDF882
:1044400008A05046BDE8FE8F2DE9F84F80460027B2
:104450000068009081F0FF00401C89463C46BB4646
:104460001FFA80FA3E463DE0009800F087FD3E4985
:10447000C8680078202805D0212803D0222801D040
:10448000232808D1086901680978022928D1878979
:10449000DFF8D8B0846800251DE000BFB4F908102B
:1044A000A08801F038FA0102A088A27902EB00206E
:1044B00000FB0AF009FB0100010AA171000CA080B9
:1044C000204601F02BFA012802D1002059468847E6
:1044D0000C346D1CEDB2BD42E0D300980830009062
:1044E000761CF6B2B8F80400B042BDD8BDE8F88F2B
:1044F00070B50646C0881E4CC2074FF0000102D0BE
:1045000010F03E0F02D0617021702AE06078012522
:1045100010B1207878B117E04FF0E020026922F066
:1045200002020261104A12886280026942F00202AD
:104530000261657021700E494FF4FA70891C00F019
:10454000A7FD60B1207860B114220A213046FFF740
:1045500031FF01463046FFF777FF002070BD257020
:10456000F2E7012070BD000084010020BB45000877
:10457000CA000020F84A10B510698168002003467F
:1045800004E08B808B710C31401CC0B21469A4898B
:104590008442F6D810BDF04B10B519698A68002125
:1045A00006E01468491C60F3C40442F80C4BC9B21D
:1045B0001C69A4898C42F4D810BD30B5E64C054680
:1045C000002021690968087020690068016841F0CD
:1045D000804101600320FFF7DEFFE049E04A888860
:1045E000042805D0102805D008208880032002E088
:1045F000022000E004201081087941192069006838
:10460000026861F31D620260BDE83040B2E7D24843
:104610003221026952681170036928225B685A705E
:10462000026952689170026903215268D17002696F
:104630005268117102695268517102695268917130
:10464000026907215268117202690A215268517287
:10465000006901214068C1710A20AEE730B5BE4B48
:10466000186982680220002109E01468E50703D078
:1046700024F00100106000200C32491CC9B21C69F2
:10468000A4898C42F1D830BD70B5FFF7E7FFB24C7A
:1046900020B120690068007813281AD120690168C8
:1046A0000D78E1680978202901D0222905D104225A
:1046B000C16902EBC500085880472069006801788D
:1046C000A942016802D121F0804101E041F080411E
:1046D000016070BDB0F908209F480069006930F89A
:1046E0001100B0F5807F01D05043020A10B270472C
:1046F000F0B5994B9A4C002019698E686080A080B3
:10470000E080207060700868016821F0004101605D
:104710001869808903286ED3002522E02946304697
:10472000FFF7D8FF002800DA0020B4F90210884211
:1047300007DDA288E280A18060802078607025700B
:104740000CE0B4F90410884203DDE180A0806570BC
:1047500004E0B4F90610884200DDE0800C366D1CE0
:10476000EDB218698089A842D8D819694FF0FF3294
:104770004D68687802EB5000B4F9042090423ADCAE
:10478000E0882778121A96B262886478101A8A89AB
:1047900080B27A430F7E5200474302EB4402BFB21D
:1047A00030444C69B7FBF0F0A25E4C7E002A02DD7B
:1047B00000EB420002E05242C0EB4200DA6800B275
:1047C0001278202A18D0212A16D0C0B209684FF0DA
:1047D0007C44C7B24A6816064E7858D5B7422ED9DF
:1047E000BF1BFF2F2BDA6F7A3E44864214DDE87937
:1047F00060F305024A6096E0002801DD001B02E03C
:10480000C4F58072104400B2002801DA0020DDE710
:10481000FF28DBDDFF20D9E704EBB2124FEAB262DA
:104820004A601D69960629687DD16D68ED7965F34A
:1048300005024A60196922F0800209684A601D6910
:1048400000F1FF062A685178B1425EDD6D686E7A2C
:104850000E4400F580718E4205DDE979506861F300
:10486000050050605FE0516804EBB1114FEAB1619F
:1048700051601C698D06226855D16468E47964F33F
:10488000050151601A6921F0800112683CE0B742CD
:1048900019D2F71BFF2F16DA6F7A0744B742A6DC4E
:1048A00004EBB2124FEAB2624A601D6996062968AB
:1048B00039D16D68ED7965F305024A60196942F0F6
:1048C000800209684A601D692A68517801F1FF0673
:1048D00086421ADA6D6801F580716E7A06448E425E
:1048E000BBDC516804EBB1114FEAB16151601C6946
:1048F0008D06226817D16468E47964F3050151607C
:104900001A6941F08001126851601969C0B20968E2
:10491000487019694A680968127AC2F10802D040E1
:104920008A78824201D10220F0BD8870186900683F
:10493000016841F0004101600020F0BD06481321EC
:1049400002691268117000690068016841F08041D5
:10495000016000201FE6000084010020B400002058
:10496000CE000020FD481321026912681170006911
:104970000068016841F08041016002200BE6F748C1
:104980000069006800787047F4490020CA6812780E
:10499000202A01D0222A05D10869C169006800785F
:1049A00011F830007047ED48006900680068C0F3F6
:1049B0008070704770B5E94D064600232869846809
:1049C0000AE019462046FFF785FEB04201DD0020CF
:1049D00070BD0C345B1CDBB2286980899842F0D82A
:1049E000022070BDDD48026900209168928909E0CB
:1049F0000B78C3F341039B0701D5002070470C31AE
:104A0000401CC0B28242F3D80220704730B5FFF795
:104A1000E9FFD24C0A25D8B12069012140684078CD
:104A2000FFF7C8FFA0B120690068016811F07C5F42
:104A300009D04FF07C4202EBB1714FEAB101016045
:104A400011F07C5F03D1216902200968087030BD34
:104A500020690068057030BD30B5FFF7C3FFBF4C5B
:104A60000C25D8B12069012140684078FFF7A2FFEA
:104A7000A0B120690068016811F07C5F09D04FF097
:104A80007C4202EBB1714FEAB101016011F07C5F31
:104A900003D1216902200968087030BD20690068CF
:104AA000057030BD70B5AD4D064600232869846899
:104AB0000BE019462046FFF70DFE7142884201DCEB
:104AC000002070BD0C345B1CDBB2286980899842E1
:104AD000EFD8022070BD4FF0E020016921F0020103
:104AE00001619E498B78096909680A6863F31D6250
:104AF0000A60016941F002010161704770B5974D8C
:104B000006460023286984680AE019462046FFF714
:104B1000E1FDB04201DB002070BD0C345B1CDBB258
:104B2000286980899842F0D8022070BD10B5FFF73F
:104B300059FF8A4C002820691CD040680121007868
:104B4000FFF7DCFF0028206925D040688078FFF758
:104B5000A9FF00281CD120694168CA78016808684B
:104B600062F31D600860216910F07C5F096826D03F
:104B700001200CE041688A790168086862F31D60D1
:104B80000860216910F07C5F096802D00F2008706E
:104B900010BD0D20FBE7416800680A79016862F3E7
:104BA0001D610160206911F07C5F006802D00B215B
:104BB000017010BD0A210170BDE810408BE7BDE80F
:104BC00010400020F9E430B5FFF70CFF634C0225DC
:104BD00028B1206940688078FFF764FF18B1206928
:104BE0000068057030BD20690068016811F07C5FC5
:104BF00009D04FF07C4202EBB1714FEAB101016084
:104C000011F07C5FEED1BDE830400020D5E42DE905
:104C1000F05F524CDFF848C14FF07C4920699CF8A6
:104C2000043001680868C0F305629A4206D909EBAE
:104C3000B0704FEAB0000860BDE8F09FFFF7D2FE09
:104C4000002820694FF00D0A04D000273E46E346B5
:104C5000856833E041688A790168086862F31D60FD
:104C60000860216910F07C5F096801D00E204BE0DC
:104C700081F800A0E0E700BF0068B5F80A8000688E
:104C8000C0F305619BF80400814209D141462846E2
:104C900000F046FE10B1A5F804800CE0AE80CBE732
:104CA000A98801EB080080B2A880404503D2AE80FD
:104CB00021690968DCE70C357F1CFFB22069818916
:104CC000B942D9D80068016811F07C5F07D009EBC0
:104CD000B1714FEAB101016011F07C5FACD1206984
:104CE000204A00218068128907E08388D3408380AE
:104CF000867106810C30491CC9B223699B898B429D
:104D0000F3D8216902200968087095E730B5FFF7EC
:104D100069FE124C022530B12069012140680078FB
:104D2000FFF7ECFE18B120690068057030BD2069FE
:104D30000068016811F07C5F09D04FF07C4202EB03
:104D4000B1714FEAB101016011F07C5FEED12169D0
:104D50000A2009680870BDE83040BCE684010020E4
:104D6000B4000020CE00002038B5FFF73BFE814C98
:104D70000028206914D0406801214078FFF71AFE0E
:104D8000F8B1206941684A790168086862F31D60DA
:104D90000860216910F07C5F096836D004200CE0BF
:104DA00041688A790168086862F31D6008602169BA
:104DB00010F07C5F096802D01120087038BD0D200A
:104DC000FBE7E0686C4D0078202818D0222816D028
:104DD000E86880688047A8B1A879811E3E29EDD295
:104DE000216909680968C1F305618DF800106946F9
:104DF00000F07BF90028E1D1FFF7DFFB38BD206927
:104E0000006AE6E7FFF767FE38BD0220D5E738B550
:104E1000FFF7E8FD574C0028206914D040680121B5
:104E20004078FFF7C7FDF8B1206941684A79016809
:104E3000086862F31D600860216910F07C5F0968F2
:104E400036D005200CE041688A790168086862F371
:104E50001D600860216910F07C5F096802D0122093
:104E6000087038BD0D20FBE7E068434D007820282E
:104E700018D0222816D0E86880688047A8B1A879A1
:104E8000811E3E29EDD2216909680968C1F30561D7
:104E90008DF80010694600F028F90028E1D1FFF7ED
:104EA0008CFB38BD2069006AE6E7FFF714FE38BDC9
:104EB0000220D5E700B5FFF795FD2E4B80B1FFF737
:104EC00063FD00F05F0001281CD002281FD00428D9
:104ED0001FD008281FD000205DF804EBFFF76DBB42
:104EE00018690068016811F07C5F09D04FF07C42BE
:104EF00002EBB1714FEAB101016011F07C5F05D1A5
:104F00000D2000E0022019690968087000BD062024
:104F1000F9E70A20F7E70C20F5E7164910B50B6909
:104F200000219A689B8909E01478C4F34104844203
:104F300001D0022010BD0C32491CC9B28B42F3D8FB
:104F4000002010BD70B50B4D06460023286984680B
:104F50000AE019462046FFF7BDFBB04201DD022002
:104F600070BD0C345B1CDBB2286980899842F0D894
:104F7000002070BD84010020B40000203849C860C2
:104F80000278202A05D0212A03D0222A01D0232A00
:104F900001D14068086170472DE9F0470027066895
:104FA000044607723D46DFF8B8804FF001091FE064
:104FB0003046FFF7E3FF3078202801D0222814D1B3
:104FC000D8F81000006A00688047D8F81000006820
:104FD0000068400001D584F80890D8F81000C16935
:104FE0000068007811F83000074308366D1CEDB2F8
:104FF000A088A842DCD8E780BDE8F0872DE9F0471B
:1050000000270668044607723D46DFF854804FF0DB
:1050100001091FE03046FFF7B1FF3078202801D0AA
:10502000222814D1D8F81000006A40688047D8F8C8
:10503000100000680068400001D584F80890D8F896
:105040001000C1690068007811F830000743083685
:105050006D1CEDB2A088A842DCD8E780CCE7000048
:105060008401002036480188491C018035490A889E
:10507000521C92B20A80B2F5FA6F08D382780023EC
:10508000521CD2B282703F2A00D983700B807047C5
:1050900030B54FF0E022136923F002031361284B6F
:1050A0001B8838B10C884FF6FF759C420C8807D8D6
:1050B0001C1B08E0106940F002001061022030BDA6
:1050C0002C1B1C44641CA4B205EA4000A04206D874
:1050D0000B80106940F002001061002030BD1069A3
:1050E00040F002001061012030BD10B54FF0E02209
:1050F000136923F002031361114B9B7828B10C78DC
:105100009C420C7807D81C1B09E0106940F0020093
:105110001061022010BDC4F13F041C44641CE4B2C1
:10512000844206D30B70106940F002001061002029
:1051300010BD106940F002001061012010BD000098
:1051400084010020D80000200B484FF4FA61006869
:10515000B0FBF1F0401EB0F1807F01D30220704718
:105160004FF0E0214861054AF0201070002088616E
:1051700007200861002070477800002023ED00E040
:1051800030B5FE4A12F8212002F00703C2F3C4052D
:1051900050F82340012202FA05F52C4340F8234041
:1051A0000D090324062D14D2DFE805F0031425139E
:1051B000364701F00F014B0085689C402543856010
:1051C000C46802FA03F31C43C46003698A401343B2
:1051D000036130BD01F00F014B0045699C40254340
:1051E0004561846902FA03F31C438461C3698A4000
:1051F0001343C36130BD01F00F014B00056A9C40B1
:1052000025430562446A02FA03F31C434462836A3D
:105210008A401343836230BD01F00F014B00C56A21
:105220009C402543C562046B02FA03F31C430463EC
:10523000436B8A401343436330BD01F00F014B00C1
:10524000856B9C4025438563C46B02FA03F31C43C2
:10525000C463036C8A401343036430BD2DE9F04FEF
:10526000C848DFF81CB34FF0010A026842F0004260
:1052700002600024DBF80400002500EB04118F8994
:105280000868B9E0BF4908390B6842781609BE4A78
:1052900052F8266033430B600B688678360952F863
:1052A000262013430B604178B74A0B09403201F0C6
:1052B0000F0652F82320012101FA06F61388334322
:1052C00013804278B04B1609203353F82660B6F8A5
:1052D00004C002F00F0201FA02F22CEA020CA6F856
:1052E00004C08278160953F82660B6F804C002F0AC
:1052F0000F0201FA02F22CEA020CA6F804C042786E
:10530000160953F82660D6F808C012074FEAD2688B
:10531000032202FA08F82CEA080CC6F808C08678BE
:105320004FEA161C53F82CC0DCF808803607F60E3E
:1053300002FA06F628EA0608CCF8088046784FEA12
:10534000161C53F82CC0DCF80C803607F60E02FA57
:1053500006F628EA0608CCF80C8086784FEA161C78
:1053600053F82CC0DCF80C803607F60E02FA06F66D
:1053700028EA0608CCF80C8090F801C00CF00F0663
:105380004FEA1C1C01FA06F653F82CC0ACF81A6060
:1053900090F802C00CF00F064FEA1C1C01FA06F64A
:1053A00053F82CC0ACF81A6046784FEA161C53F834
:1053B0002C80C146D8F800C03607F60E02FA06F86F
:1053C0002CEA080C01FA06F64CEA060CC9F800C0F3
:1053D00086784FEA161C53F82C30D3F800C03607F5
:1053E000F60EB2402CEA020CB1404CEA010CC3F8B4
:1053F00000C0C01C6D1CEDB2BD42FFF443AF641C85
:10540000E4B25445FFF436AF6048016821F0004132
:1054100001600020BDE8F08FF0B559495A4C5C4F4F
:105420004968183C01EB00120020014607F14403D3
:10543000C4F8142047F8201043F82010401CC0B2D4
:105440001128F7D3908960802170A180D2E9005C97
:10545000002621E061699CF80000896800EB4000AB
:1054600011F8200010F0180F11D069784848FFF7A4
:1054700087FE4748A9784430FFF782FE297801204B
:105480008840A1880843A0802078401C2070ED1C33
:10549000761C0CF1010CF6B260888642DAD33869CA
:1054A000A060F869E060B86A20610020F0BD30B506
:1054B000384A374C002152880125883412F1010204
:1054C00005FA01F3834301D044F82120491C89B235
:1054D0000B29F5D330BD01E0401E80B20028FBD17E
:1054E00070472DE9F04F012085B00025CDE900502F
:1054F0002C4672B662B62649244E01F14402086871
:10550000136818433368834333604868536818430B
:10551000371D3B6883433B6072B6088A138A184381
:105520001D4BB3F814C02CEA000CA3F814C0D1F83A
:1055300008C090684CEA000C1868D2F80C8020EA89
:105540000C00D1F80CC04CEA080C40EA0C001860C2
:10555000888BB2F81CC040EA0C00DFF840C0BCF8F1
:1055600000C02CEA000C0D48A0F800C0D1F814C00F
:105570005069DFF828A04CEA000C11E0A062000896
:105580008401002024380240F4000020087C004000
:1055900098010020B40000200000024014040240E2
:1055A000AAF1140ADAF80000D2F8188020EA0C00F8
:1055B000D1F818C04CEA080C40EA0C00CAF8000008
:1055C000088DB2F828C0DFF85CB340EA0C00BBF8E5
:1055D00000C02CEA000CABF800C0DFF84893D1F80B
:1055E00020C0106AA9F114094CEA000CD9F8000097
:1055F000D2F8248020EA0C00D1F824C04CEA080C30
:1056000040EA0C00C9F8000062B63220FFF763FFE1
:1056100072B68868D2F808C040EA0C00D3F800C01F
:105620002CEA000CC3F800C04869D2F814C040EA64
:105630000C00DAF800C02CEA000CCAF800C0086AB6
:10564000D2F820C040EA0C00D9F800C02CEA000CC7
:10565000C9F800C0088AB2F810C040EA0C00B3F8DC
:1056600014C040EA0C009882888BB2F81CC040EA53
:105670000C00DFF8B4C2BCF800C040EA0C00DFF850
:10568000A8C2ACF80000088DB2F828C040EA0C00AF
:10569000BBF800C040EA0C00ABF8000062B630680E
:1056A000D1F800C040EA0C0030603868496808430F
:1056B0003860DFF878929B4672B65946DBF80020D6
:1056C000DFF86CA2DAF80C301A43CBF80020964AC7
:1056D000143A1368DAF8186033431360914A143AA5
:1056E0001368DAF824000343136062B60120FFF761
:1056F000F2FE098AD9F808204846114202D0012456
:105700008A438260884A121F1288C3681A4202D0F4
:1057100002249343C360834B1B1F1B88D9F81000DE
:10572000034204D004249843C9F8100000E07CB37D
:10573000D9F814000026B9F802C0006849E000BF9B
:1057400090F800804FF0010E0EFA08F7CDF81080A7
:10575000B9F80480BFB2CDF80C8037EA080735D11C
:1057600090F80180CDF8088008F00F080EFA08F7CD
:10577000DDF808805FEA181806D0B8F1010F05D0EF
:10578000B8F1020F06D104E0009103E0009201E0BD
:1057900021E00093DDF8008037EA080716D1DFF832
:1057A0009081049F08F1440848F8275090F8008041
:1057B0000EFA08F7DDF80C8028EA0708A9F804803B
:1057C00047784FEA17180EFA08F7BC43C01C761C3E
:1057D000F6B26645B4D36D1CADB272B6DBF80020EC
:1057E000DAF8083051469A43CBF800204E48143876
:1057F0000268DAF814309A4302604A4814380268A2
:10580000DAF820309A43026062B64A4A10680B68A0
:1058100018431060131D18684E683043186001204B
:10582000FFF759FE10680E68B043106018684968A9
:105830008843186040484088A842B9F8040003D261
:10584000FFF735FE00BF02E000287FF435AF72B6E7
:105850000022DFF8E8A000BFDAF80400002300EB24
:105860000210868901683CE04C78012004F00F05A5
:1058700000FA05F527092D4C383454F827707D833C
:105880008F7807F00F0500FA05F53F0954F82770E7
:105890007D834D782F0954F82770D7F800C02D0765
:1058A000ED0E4FF0030909FA05F82CEA080C00FA8E
:1058B00005F54CEA050CC7F800C08F783D0954F88F
:1058C0002540D4F800C03D07ED0E09FA05F72CEA93
:1058D000070CA8404CEA000CC4F800C0C91C5B1CB3
:1058E000DBB2B342C0D3521C0198D2B28242B3D3CE
:1058F00062B605B08EE5002070470D49443131F89D
:10590000200080B270470020704770470120704728
:10591000401A00B27047401A80B2704700207047AA
:10592000012070471408024014040240DC000020EB
:10593000DC010020087C0040B4000020840100202D
:10594000704770477047754600F028F8AE4605006E
:105950006946534620F00700854618B020B5FEF78B
:10596000BBFBBDE820404FF000064FF000074FF0B2
:1059700000084FF0000B21F00701AC46ACE8C0096D
:10598000ACE8C009ACE8C009ACE8C0098D46704776
:105990000446AFF300802046FAF721FC0048704728
:1059A0004C02002001491820ABBEFEE72600020091
:1059B000704743F6494CC2F2000C604743F6B54CC1
:1059C000C2F2000C6047000021F00042A2F16052D8
:1059D000B2F5801F01F0004328BFD2F17F6C0BD9D4
:1059E0005FEA001C43EAC20242EB507018BF7047E6
:1059F00028BF20F001007047B2F5801FBCBF1846D9
:105A000070474FEA410C1CF5001F02D2084600F017
:105A1000F2BA70B500F07DF900000089FFF7F6BF1B
:105A20004FF00040A0F580007047000002494FF0A1
:105A3000000000F0E5BA00BF0000F87F2DE9C0418A
:105A400030B4DFF8A0C23CEA111418BF3CEA1314CA
:105A500000F0EC8081EA03051CEA111444EAD574D5
:105A600018BF1CEA131500F0C780A4EB05044FF023
:105A7000004545EAC12145EAC32341EA505143EAC2
:105A8000525304F17F74994204F500344FEAC02068
:105A90004FEAC22208BF904200F09C804FEA136593
:105AA0000FF24016765D4FEA134506FB05F7C7F186
:105AB000807706FB07F74FEAD737A7FB03687642E4
:105AC000C8F58038A7FB06CE38BFA8F1010807FB50
:105AD00008E64FF0000EA6FB028CE6FB03CEDCF1DD
